:020000040800F2
:10000000E0040020D1000008D5180008731600088D
:1000100000000000000000000000000000000000E0
:10002000000000000000000000000000531900085C
:1000300000000000000000005119000855190008D8
:10004000E3000008E3000008E3000008E300000804
:10005000E300000845020008E3000008E300000890
:10006000E3000008E3000008E3000008E3000008E4
:1000700061010008E3000008E3000008E300000855
:10008000E3000008E300000800000000E3000008AF
:10009000E3000008E3000008E3000008E3000008B4
:1000A000E3000008E3000008E3000008E3000008A4
:1000B000E300000800000000E30000080348854654
:1000C00000F03CF800480047BD1B0008E004002099
:1000D0000448804704480047FEE7FEE7FEE7FEE7E6
:1000E000FEE7FEE7B9190008BD00000830B50B4671
:1000F000014600202022012409E00D46D5409D4202
:1001000005D31D469540491B254695404019154687
:10011000521E002DF1DC30BDD2B201E00270401C55
:10012000491EFBD270470022F6E710B513460A4677
:1001300004461946FFF7F0FF204610BD064C012586
:10014000064E05E0E36807CC2B430C3C984710347F
:10015000B442F7D3FFF7B6FF341E0008541E000860
:1001600010B5024800F05DF910BD00001400002039
:1001700038B504460025002000902068806880077C
:10018000800F01280ED120680068C007C00F00282A
:1001900006D12068C0680121C9030840884201D106
:1001A000012000E00020002843D120688068224917
:1001B0000840002801D1012000E00020002809D1DA
:1001C000606C102108436064A06C01210843A064A6
:1001D000012038BD206880680121084321688860BB
:1001E000164917480068FFF781FF009002E0009869
:1001F000401E009000980028F9D100F0B1FC05469F
:100200000EE000F0ADFC401B022809D9606C102103
:1002100008436064A06C01210843A0640120D8E772
:1002200020680068C007C00F0121484048400028EE
:10023000E7D00020CDE700001700008040420F000B
:100240001000002010B5012000F072FB022000F029
:100250006FFB10BD70470000F8B504460D46002640
:100260000020009001210907A06B884215D0A06BE7
:10027000012812D0A06B02280FD0A06B03280CD04D
:10028000A06B042809D0A06B052806D0A06B062817
:1002900003D0A06B072800D000BF00BF4020005D46
:1002A000012801D10220F8BD01214020015500BFE5
:1002B0002068806804210840800800287ED14D49CC
:1002C0006868884264D02068806A2A780121914059
:1002D00008432168886201210907A06B884229D060
:1002E000A06B012826D0A06B022823D0A06B032886
:1002F00020D0A06B04281DD0A06B05281AD0A06BBD
:10030000062817D0A06B072814D0A868216849696F
:100310004907490F88420DD020684069C008C000D5
:100320002168486120684069297A4907490F0843D4
:10033000216848612868102805D02868112802D053
:10034000286812284FD12C4880682968102901D1CB
:10035000C90407E02968112902D10121890501E0BA
:1003600001210906084324498860286810283AD1E9
:10037000224923480068FFF7B9FE0A21484300904C
:1003800002E00098401E009000980028F9D12AE071
:100390002068816A2A780120904081432068816228
:1003A0002868102805D02868112802D0286812284B
:1003B00019D1114880682968102900E00EE001D1A8
:1003C000C90407E02968112902D10121890501E04A
:1003D0000121090688430849886004E0606C2021F7
:1003E00008436064012600BF00214020015500BF82
:1003F000304658E7011000000027014040420F003E
:100400001000002010B50446204600F006F801490F
:10041000087010BD00000020704701460868006C9D
:10042000704710B50446206800680421084004287D
:1004300004D120684068084004280AD02068006879
:1004400008210840082840D1206840680840082852
:100450003BD1606C10210840002803D1606C490139
:10046000084360642068C0680321890208400028AE
:1004700025D1206A002822D1206800680821084080
:1004800008281CD1206880680421084080080028C2
:100490000DD1206840680C21884321684860606C59
:1004A000FF210131884301210843606407E0606C4B
:1004B000202108436064A06C01210843A064204609
:1004C000FFF7A0FF0C2021680860206800688021E9
:1004D000084080280ED1206840680840802809D153
:1004E000606C490208436064204600F005F98020F2
:1004F00021680860206800681021084010281AD17F
:10050000206840680840102815D1606B012805D08C
:100510002068C068C007C00F002809D0A06C022165
:100520000843A0641020216808602046FFF774FF8C
:1005300010202168086010BD70B504460026002513
:10054000002C01D1012070BD606C002806D1A06490
:10055000002140200155204600F0D0F8606C1021A9
:10056000084000287ED1002EFCD12068806804213C
:10057000084080080028F5D1606C89018843022179
:1005800008436064206880688007800F01280DD1CF
:1005900020680068C007C00F002805D12068C06827
:1005A00089030840884201D1012000E00020002892
:1005B0000FD12068C06818218843A16808432168CA
:1005C000C86020680069800080086168084321686D
:1005D00008612068C068464908402168C860A06971
:1005E0008003E169C9030843216A49030843616B39
:1005F000012902D00121090300E000210843E1683C
:1006000008432169022901D1042100E000210843A7
:10061000216B490008430543606A01280ED1206A16
:10062000002803D101200004054307E0606C20216D
:1006300008436064A06C01210843A064FF21C2311B
:10064000A06A884203D0E16AA06A08430543206893
:10065000C06828432168C86001210907A06B88424F
:1006600016D000E03DE0A06B012811D0A06B02285D
:100670000ED0A06B03280BD0A06B042808D0A06B71
:10068000052805D0A06B062802D0A06B07280DD145
:1006900020684069C008C00021684861206840693E
:1006A000218F4907490F0843216848612068C068C5
:1006B00010490840A84208D10020A064606C0221C3
:1006C000884301210843606410E0606C0221884384
:1006D000102108436064A06C01210843A064012636
:1006E00004E0606C102108436064012630462AE76C
:1006F0001902FEFFE7FF3F837047000010B586B088
:100700000446142101A8FFF70EFD1B49206888420A
:100710002FD100BF194880694915084317498861DE
:100720000846806949150840009000BF00BF00BF1F
:100730001248406909020843104948610846406967
:10074000012149040840009000BF00BF0120019032
:10075000032002900020039001A90920C00600F0A8
:10076000F7F8002211460C2000F058FA0C2000F097
:1007700049FA06B010BD00000024014000100240FC
:1007800070B5044600252068806804210840800870
:10079000002843D100BF4020005D012801D1022084
:1007A00070BD01214020015500BFE069012803D040
:1007B0002046FFF7DDFC0546002D30D1606C19495D
:1007C0000840FF210131084360640020A06400BF9D
:1007D00000214020015500BF1C202168086060698D
:1007E00008280CD1206840680421884321684860AB
:1007F00020684068182108432168486006E02068A6
:1008000040681C2108432168486000BF00BF206881
:100810008068042108432168886000E0022528469A
:10082000BEE70000FEF1FFFF31B500F099F9054683
:10083000009C601C002800D0641C00BF00F090F9F0
:10084000401BA042FAD338BD10B5044601213348FD
:1008500000F076F93249334A1278885402212F4841
:1008600000F06EF930492F4A127888542D480078EC
:10087000401C2C4908700846007802284CD12848B2
:10088000007800280BD126484078012807D1264857
:100890000078012803D12448407801280FD020484F
:1008A0000078012810D11E48407800280CD11E483D
:1008B0000078002808D11C484078002804D11B4843
:1008C0000078401C194908701548007801280BD1A0
:1008D00013484078012807D113480078002803D135
:1008E0001148407801280FD00D480078002810D119
:1008F0000B48407800280CD10B480078012808D11B
:1009000009484078002804D108480078401E07496B
:10091000087000200349087010BD00000004004862
:100920000400002008000020060000200200002033
:1009300010B50446054840692040002804D003480B
:1009400044612046FFF780FF10BD00000004014015
:1009500078B50346002200240020DEE00126964000
:100960000D6835402C46002C7ED04D68022D02D0FB
:100970004D68122D15D1D508AE001D462035A85959
:100980005507EE0E0F25B5400646AE4330465607D6
:10099000F60E0D69B5402843D508AD001E46203639
:1009A0007051186856000325B5400646AE433046E0
:1009B0000D79AD07AD0F5600B540284318604D685E
:1009C000012D08D04D68022D05D04D68112D02D0A3
:1009D0004D68122D18D1986856000325B54006467B
:1009E000AE4330465600CD68B540284398605868FD
:1009F000012595400646AE43304610264D683540E9
:100A00002D09954028435860D86856000325B54005
:100A10000646AE43304656008D68B5402843D86040
:100A2000012636074D683540B54275D100BF3E4DB1
:100A3000AD69012635433C4EB5613546AD69ED07DC
:100A4000ED0F009500BF00BF384D9608B600A859BD
:100A500095072E0F0F25B5400646AE4330460925B3
:100A6000ED06AB4203D100E056E000250FE0304D2B
:100A7000AB4201D101250AE02E4DAB4201D1022546
:100A800005E02D4DAB4201D1032500E00525960779
:100A9000360FB5402843254D9608B600A851274D7E
:100AA00028680546A5432846012636044D6835408A
:100AB000B54202D1054625432846204D2860686886
:100AC0000546A5432846012676044D683540B542C3
:100AD00002D1054625432846184D6860A86805469A
:100AE000A5432846012636054D683540B54202D15A
:100AF000054625432846114DA860E8680546A543EC
:100B00002846012676054D683540B54202D1054696
:100B100025432846094DE860521C0D68D540002D3C
:100B200000D01BE778BD0000001002400800014023
:100B30000004004800080048000C00480004014080
:100B4000024613690B40002B01D0012000E0002079
:100B50007047002A01D0816100E081627047000087
:100B600001480068704700000C000020024800683F
:100B7000401C0149086070470C00002010B5064871
:100B800000681021084304490860002000F006F8BE
:100B900000F018F8002010BD0020024070B5044697
:100BA00000F010F906467D21C900FFF79FFA0546BF
:100BB00000F016FC00222146501E00F02FF8002005
:100BC00070BD000008B500BF0D48806901210843D1
:100BD0000B49886108468069C007C00F009000BFBC
:100BE00000BF00BF0846C069090408430449C86142
:100BF0000846C06909040840009000BF00BF08BD56
:100C00000010024000BFC206D20E01219140024AEC
:100C1000116000BF7047000000E100E070B50446BD
:100C20000D4616462946204600F056FE70BD0000CF
:100C300070B504460D4600265D480068C007C00F29
:100C4000A8420ED25A48006840084000284358493C
:100C5000086008460068C007C00FA84201D0012004
:100C600070BD022120680840022807D15148406821
:100C7000F0218843A16808434E4948602078C007A6
:100C8000C00F00285FD06068012808D1494800687B
:100C9000012149040840002815D10120E0E76068DF
:100CA000022808D14348006801214906084000286D
:100CB00009D10120D4E73F480068022108400028FC
:100CC00001D10120CCE73B48406880088000616882
:100CD000084338494860FFF743FF0646606801282B
:100CE0000FD107E0FFF73CFF801B3349884201D951
:100CF0000320B5E72F4840680C2108400428F1D1B3
:100D000021E0606802280FD107E0FFF729FF801B70
:100D10002949884201D90320A2E7264840680C21CE
:100D200008400828F1D10EE007E0FFF719FF801B0B
:100D30002149884201D9032092E71E4840680C21CE
:100D400008400028F1D11A480068C007C00FA84227
:100D50000ED917480068400840002843144908602D
:100D600008460068C007C00FA84201D0012077E7FD
:100D7000042120680840042808D10E484068072153
:100D800009028843E16808430A49486000F020F8F6
:100D900008494968F02211400909084A515CC840D5
:100DA000074908600020FFF7F9FE002058E700001F
:100DB0000020024000100240881300001C1E0008A2
:100DC000100000200148006870470000100000205B
:100DD000F0B589B024A001460EC9C06805AC0EC4A8
:100DE000089025A001460EC9C06801AC0EC404904D
:100DF0000024002700250026002000902248446897
:100E00000C202040002827D0042802D0082822D116
:100E100002E01E48009022E00F2080042040800C59
:100E200005A90E5C1848C06A0007000F01A90F5CF5
:100E300001200004204001210904884206D13946DE
:100E40001248FFF753F97043054602E01048354653
:100E50004543009503E000BF0C48009000BF00BF71
:100E6000009809B0F0BD0000020304050607080958
:100E70000A0B0C0D0E0F10100102030405060708E3
:100E8000090A0B0C0D0E0F100010024000127A0020
:100E900000093D00F8B5044600252078C007C00FC2
:100EA000002871D0F94840680C21084004280BD074
:100EB000F64840680840082812D1F44840680121EB
:100EC0000904084088420BD1F04800680121490418
:100ED000084000286BD06068002868D10120F8BD68
:100EE00000BF6068012807D1E848006801210904B3
:100EF0000843E649086031E0606800280ED1E34805
:100F00000068012109048843E04908600846006838
:100F1000012189048843DD4908601FE060680528D5
:100F20000ED1DA480068012189040843D7490860D6
:100F300008460068012109040843D44908600DE00F
:100F4000D2480068012109048843D0490860084656
:100F50000068012189048843CC49086000BF6068AB
:100F6000002812D0FFF7FCFD054606E0FFF7F8FD6C
:100F7000401B642801D90320B1E7C448006801215F
:100F8000490408400028F1D011E0FFF7E9FD0546CB
:100F900006E0FFF7E5FD401B642801D903209EE72A
:100FA000BA4800680121490408400028F1D1022113
:100FB00020680840022861D1B44840680C210840EC
:100FC00000280BD0B1484068084008281BD1AF4822
:100FD0004068012109040840002814D1AB4800688A
:100FE00002210840002804D0E068012801D0012037
:100FF00075E7A6480068F82188432169C9000843BD
:10100000A24908603AE0E068002820D09F480068C4
:10101000012108439D490860FFF7A2FD054606E04F
:10102000FFF79EFD401B022801D9032057E7974890
:101030000068022108400028F2D094480068F82196
:1010400088432169C90008439049086016E08F4829
:101050000068400840008D490860FFF781FD0546A3
:1010600006E0FFF77DFD401B022801D9032036E78B
:1010700086480068022108400028F2D10821206833
:101080000840082831D1E069002817D07F48406A1D
:10109000012108437D494862FFF762FD054606E0ED
:1010A000FFF75EFD401B022801D9032017E77748B0
:1010B000406A022108400028F2D016E07348406AD6
:1010C0004008400071494862FFF74AFD054606E0C6
:1010D000FFF746FD401B022801D90320FFE66B48BD
:1010E000406A022108400028F2D10421206808400B
:1010F000042871D100266548C06989060840002887
:101100000DD100BF6148C06908436049C861084605
:10111000C06909040840009000BF00BF01265C4878
:101120000068FF2101310840002816D158480068A6
:10113000084357490860FFF713FD054606E0FFF72F
:101140000FFD401B642801D90320C8E65048006801
:10115000FF21013108400028F1D000BFA06801281C
:1011600006D14A48006A01210843484908622BE039
:10117000A06800280CD14548006A40084000434957
:1011800008620846006A04218843404908621BE05F
:10119000A06805280CD13D48006A042108433B495A
:1011A00008620846006A01210843384908620BE0DA
:1011B0003648006A40084000344908620846006A20
:1011C000042188433149086200BFA068002813D079
:1011D000FFF7C6FC054608E029E0FFF7C1FC401B0D
:1011E0002C49884201D9032079E62848006A022167
:1011F00008400028F1D011E0FFF7B2FC054607E0F7
:10120000FFF7AEFC401B2349884201D9032066E664
:101210001E48006A022108400028F1D1012E05D1A4
:101220001A48C069310788431849C86100BF1021B6
:101230002068084010285FD1606901282CD113482C
:10124000406B04210843114948630846406B012163
:1012500008430E494863FFF783FC054606E0FFF7A5
:101260007FFC401B022801D9032038E60748406B69
:10127000022108400028F2D00448406BF82188433E
:10128000A169C90008430149486335E000100240E4
:1012900000700040881300006069401D00280FD1D5
:1012A0004E48406B042188434C4948630846406BD4
:1012B000F8218843A169C9000843484948631BE0F5
:1012C0004648406B04210843444948630846406B44
:1012D000400840004863FFF743FC054606E0FFF77F
:1012E0003FFC401B022801D90320F8E53B48406B36
:1012F000022108400028F2D1206A00286CD037482B
:1013000040680C210840082864D0206A022847D190
:101310003248006801210906884330490860FFF718
:101320001FFC054606E0FFF71BFC401B022801D905
:101330000320D4E529480068012149060840002817
:10134000F1D100BF2548C06A00090001E16A0843E5
:101350002249C862616AA06A0843204949683D225F
:101360001204914308431D49486000BF08460068C5
:1013700001210906084319490860FFF7F1FB0546FA
:1013800006E0FFF7EDFB401B022801D90320A6E58C
:10139000124800680121490608400028F1D01BE0EE
:1013A0000E4800680121090688430C490860FFF7D0
:1013B000D7FB054606E0FFF7D3FB401B022801D907
:1013C00003208CE5054800680121490608400028F3
:1013D000F1D101E0012082E5002080E5001002400B
:1013E00070B504462546681E0949884201D9012086
:1013F0000CE0681E074948610321081F00F06CFAE1
:1014000000200449886107200861002070BD0000A9
:10141000FFFFFF0000E000E010B504462068C06850
:10142000022108432168C86001220021206800F0E1
:1014300055FB2068006801210843216808600020EE
:1014400010BD024600BF3C20805C012801D1022073
:10145000704701233C20835400BF02233D20835466
:10146000106840687023984313685860106840689B
:101470000B6818431368586010688068802398438D
:1014800013689860106880684B6818431368986008
:1014900001233D20835400BF00233C20835400BF20
:1014A0000020D5E710B50446002C01D1012010BD65
:1014B0003D20005D002805D100213C20015520463B
:1014C00000F00CF802213D200155211D206800F09C
:1014D000ADFA01213D2001550020E8E708B5124A88
:1014E000016891420DD100BF10498969D21411439E
:1014F0000E4A916111468969D2141140009100BFD2
:1015000011E00B4A016891420DD100BF0749C9693A
:1015100010221143054AD1611146C96910221140B8
:10152000009100BF00BF08BD002C01400010024028
:1015300000100040F8B504460D46002600BF3C20D0
:10154000005D012801D10220F8BD01213C20015598
:1015500000BF02213D200155206886687721304672
:1015600088430646FF210902304688430646206824
:101570008660286850283ED00CDC202863D004DC2C
:10158000002856D0102868D158E0302860D0402874
:1015900063D144E0602838D070280DD001210903C0
:1015A000401A02D0401A58D117E020688068C0085D
:1015B000C0002168886051E0EB686A68A96820680B
:1015C00000F09AFA206886687721304688430646FC
:1015D000772006432068866040E0EB686A68A96867
:1015E000206800F089FA2068806801218903084397
:1015F0002168886032E0EA686968206800F098FA3B
:101600005021206800F087FA28E0EA6869682068BD
:1016100000F0A9FA6021206800F07DFA1EE0EA6877
:101620006968206800F084FA4021206800F073FAAD
:1016300014E00021206800F06EFA0FE0102120680D
:1016400000F069FA0AE02021206800F064FA05E061
:101650003021206800F05FFA00E000BF00BF0121E8
:101660003D20015500BF00213C20015500BF002056
:101670006AE700BFFEE700000EB500200090019071
:101680000290184818490860400548601021164823
:1016900081600021C16001210161042141610021BB
:1016A0008161C16101624162816201218902C1627D
:1016B0000021016301214163FEF73EFF002801D0B4
:1016C000FEF7C8FD002000900120000301900720D4
:1016D000029069460448FEF7BFFD002801D0FEF7DE
:1016E000B9FD0EBD002401401400002000B587B0F4
:1016F000142102A8FEF717FD00BF404840690121F0
:10170000890508433D49486108464069012189052A
:101710000840019000BF00BF00BF38484069491130
:101720000843364948610846406901214904084098
:10173000019000BF00BF00BF304840694900084326
:101740002E494861084640690121890408400190FA
:1017500000BF00BF00225F2109010920C006FFF77A
:10176000F8F9F020029011200390002004900590D9
:1017700002A90920C006FFF7EBF8032002902048D9
:1017800003900020049002A91E48FFF7E1F805200D
:10179000000202900120039000200490059002A90D
:1017A0000920C006FFF7D4F8012040020290002073
:1017B00003900220049002A90920C006FFF7C8F890
:1017C0000820029000200390049002A90D48FFF722
:1017D000BFF810200290002003900220049002A97C
:1017E0000848FFF7B5F8002211460520FFF716FA62
:1017F0000520FFF707FA07B000BD00000010024007
:10180000000031100004004800B587B000200390AC
:1018100004900590069001900290174817490860BF
:10182000302048600021154881601549C1600021C1
:101830000161416180218161FFF734FE002801D000
:10184000FEF708FD01200003039003A90B48FFF7F2
:1018500071FE002801D0FEF7FDFC20200190002041
:10186000029001A90548FFF7ECFD002801D0FEF722
:10187000F1FC07B000BD0000002C0140600000201A
:10188000E70300001CB50020009001900E480F49AE
:1018900008603020486000210C4881600C49C1601C
:1018A00080218161FFF7FEFD002801D0FEF7D2FC08
:1018B00000200090019069460448FFF7C2FD00280F
:1018C00001D0FEF7C7FC1CBD00100040A0000020A6
:1018D000E70300007047000010B5002819DA1A4A23
:1018E00003071B0F083B9B089B00D2588307DC0EA5
:1018F000FF23A3409A438B071B0E8407E40EA340EB
:101900001A43114B0407240F083CA408A4001A51E1
:1019100018E00E4A03231B02D21883089B00D258FA
:101920008307DC0EFF23A3409A438B071B0E84071B
:10193000E40EA3401A43054B032424021B19840818
:10194000A4001A5110BD00001CED00E000E100E011
:101950007047704710B5FFF709F910BD00B591B099
:10196000302105A8FEF7DFFB0020019002900390D4
:10197000049001200590069002200D90C1030E9165
:10198000C1040F910021109105A8FFF783FA0028E8
:1019900001D0FEF75FFC072001900220029000209A
:1019A00003900490012101A8FFF742F9002801D01B
:1019B000FEF750FC11B000BD194800680121084332
:1019C00017490860084640681649084014494860AD
:1019D0000846006814490840114908600846006834
:1019E0000121890488430E490860084640683F2168
:1019F000090488430A4948600846C06A0009000192
:101A0000C8620846006BFF215431884304490863CB
:101A10000846406B400840004863002088607047DB
:101A2000001002400CB8FFF8FFFFF6FE10B50022D0
:101A30000268244B984206D001239B07984202D0AB
:101A4000214B984205D170241346A3431A464B6894
:101A50001A431C4B984212D001239B0798420ED088
:101A6000194B98420BD0194B984208D0184B98420A
:101A700005D0184B984202D0174B984206D1032448
:101A800024021346A3431A46CB681A438024134604
:101A9000A3434C6923431A4602608B68C3620B68F8
:101AA0008362084B984208D0094B984205D0094BF5
:101AB000984202D0084B984201D10B69036301237D
:101AC000436110BD002C0140000400400020004094
:101AD00000400140004401400048014030B500236F
:101AE00001248C402346046A9C430462046A154620
:101AF0008D402C43046230BD70B50C4600218168D6
:101B0000FF2636020D46B54329461D0215432543DF
:101B10002943816070BD10B50A4600218168702498
:101B20000B46A3431946072313431943816010BD95
:101B300070B50B46144600210022026A056A6D0842
:101B40006D0005628169F0260D46B54329462501E1
:101B500029430A261546B5432A4615461D432A46FB
:101B60008161026270BD70B50B46144600210022EF
:101B7000056A1026B54305628169026A0F2636039D
:101B80000D46B543294625032943A0261546B543EE
:101B90002A461D012A438161026270BD02E008C825
:101BA000121F08C1002AFAD170477047002001E0D7
:101BB00001C1121F002AFBD17047000086B000202F
:101BC0008F490870FEF7DAFFFFF7C8FEFFF78EFDBA
:101BD000FFF752FDFFF718FEFFF754FE8948FEF7A6
:101BE00023FE012211020920C006FEF7B2FF0122E6
:101BF00091020920C006FEF7ACFF00221021092047
:101C0000C006FEF7A6FF002220210920C006FEF72D
:101C1000A0FF002240210920C006FEF79AFF002203
:101C200080210920C006FEF794FF7748FFF7F4FBF8
:101C30007648FEF7A5FDE2E008217548FEF780FF33
:101C4000012834D1142101A8FEF76DFA102001906B
:101C5000002002900390049001A90920C006FEF71D
:101C600077FE7D20C000FEF7DFFD00220121890202
:101C70000920C006FEF76DFF02E06420FEF7D4FDE8
:101C800008216348FEF75CFF0028F6D1012291028B
:101C90000920C006FEF75DFF6420FEF7C5FD112098
:101CA000029001A90920C006FEF752FE00BF0122E2
:101CB00020210920C006FEF74CFF00221021092038
:101CC000C006FEF746FF10215148FEF739FF0446D3
:101CD000224640210920C006FEF73BFF01214902B0
:101CE0000920C006FEF72CFF044622468021092069
:101CF000C006FEF72EFF3220FEF796FD00222021BF
:101D00000920C006FEF725FF012210210920C00688
:101D1000FEF71FFF3220FEF787FD00221021092069
:101D2000C006FEF716FF3B480078C207D20F4021DD
:101D30000920C006FEF70DFF364800788007C20F65
:101D400080210920C006FEF704FF3220FEF76CFD5B
:101D5000012210210920C006FEF7FBFE3220FEF70B
:101D600063FD002210210920C006FEF7F2FE2A487A
:101D70000078C207D20F40210920C006FEF7E9FE15
:101D8000254800788007C20F80210920C006FEF791
:101D9000E0FE3220FEF748FD012210210920C00696
:101DA000FEF7D7FE3220FEF73FFD0022102109206A
:101DB000C006FEF7CEFE184800784007C20F40214B
:101DC0000920C006FEF7C5FE134800780007C20FC1
:101DD00080210920C006FEF7BCFE3220FEF724FD5C
:101DE000012210210920C006FEF7B3FE3220FEF7C3
:101DF0001BFD002210210920C006FEF7AAFE1BE7EA
:101E000002000020B80B0000600000201400002039
:101E10000004004801000020030000200000000032
:101E2000000000000102030406070809000000008A
:101E300001020304541E00080000002014000000EA
:101E40009C1B0008681E000814000020CC04000041
:101E5000AC1B0008000000000000000000000000B3
:081E60000000000000127A00EE
:04000005080000BD32
:00000001FF
