:020000040800F2
:10000000E8040020D1000008D91B0008731900087B
:1000100000000000000000000000000000000000E0
:10002000000000000000000000000000571C000855
:100030000000000000000000551C0008591C0008CA
:10004000E3000008E3000008E3000008E300000804
:10005000E300000845020008E3000008E300000890
:10006000E3000008E3000008E3000008E3000008E4
:1000700061010008E3000008E3000008E300000855
:10008000E3000008311D000800000000E300000844
:10009000E3000008E3000008E3000008E3000008B4
:1000A000E3000008E3000008E3000008E3000008A4
:1000B000E300000800000000E30000080348854654
:1000C00000F03CF800480047D11E0008E80400207A
:1000D0000448804704480047FEE7FEE7FEE7FEE7E6
:1000E000FEE7FEE7BD1C0008BD00000830B50B466A
:1000F000014600202022012409E00D46D5409D4202
:1001000005D31D469540491B254695404019154687
:10011000521E002DF1DC30BDD2B201E00270401C55
:10012000491EFBD270470022F6E710B513460A4677
:1001300004461946FFF7F0FF204610BD064C012586
:10014000064E05E0E36807CC2B430C3C984710347F
:10015000B442F7D3FFF7B6FF7C2100089C210008CA
:1001600010B5024800F05DF910BD00001800002035
:1001700038B504460025002000902068806880077C
:10018000800F01280ED120680068C007C00F00282A
:1001900006D12068C0680121C9030840884201D106
:1001A000012000E00020002843D120688068224917
:1001B0000840002801D1012000E00020002809D1DA
:1001C000606C102108436064A06C01210843A064A6
:1001D000012038BD206880680121084321688860BB
:1001E000164917480068FFF781FF009002E0009869
:1001F000401E009000980028F9D100F015FD05463A
:100200000EE000F011FD401B022809D9606C10219E
:1002100008436064A06C01210843A0640120D8E772
:1002200020680068C007C00F0121484048400028EE
:10023000E7D00020CDE700001700008040420F000B
:100240001400002010B5012000F0D6FB022000F0C1
:10025000D3FB10BD70470000F8B504460D460026DC
:100260000020009001210907A06B884215D0A06BE7
:10027000012812D0A06B02280FD0A06B03280CD04D
:10028000A06B042809D0A06B052806D0A06B062817
:1002900003D0A06B072800D000BF00BF4020005D46
:1002A000012801D10220F8BD01214020015500BFE5
:1002B0002068806804210840800800287ED14D49CC
:1002C0006868884264D02068806A2A780121914059
:1002D00008432168886201210907A06B884229D060
:1002E000A06B012826D0A06B022823D0A06B032886
:1002F00020D0A06B04281DD0A06B05281AD0A06BBD
:10030000062817D0A06B072814D0A868216849696F
:100310004907490F88420DD020684069C008C000D5
:100320002168486120684069297A4907490F0843D4
:10033000216848612868102805D02868112802D053
:10034000286812284FD12C4880682968102901D1CB
:10035000C90407E02968112902D10121890501E0BA
:1003600001210906084324498860286810283AD1E9
:10037000224923480068FFF7B9FE0A21484300904C
:1003800002E00098401E009000980028F9D12AE071
:100390002068816A2A780120904081432068816228
:1003A0002868102805D02868112802D0286812284B
:1003B00019D1114880682968102900E00EE001D1A8
:1003C000C90407E02968112902D10121890501E04A
:1003D0000121090688430849886004E0606C2021F7
:1003E00008436064012600BF00214020015500BF82
:1003F000304658E7011000000027014040420F003E
:100400001400002010B50446204600F006F801490B
:10041000087010BD00000020704701460868006C9D
:10042000704710B50446206800680421084004287D
:1004300004D120684068084004280AD02068006879
:1004400008210840082840D1206840680840082852
:100450003BD1606C10210840002803D1606C490139
:10046000084360642068C0680321890208400028AE
:1004700025D1206A002822D1206800680821084080
:1004800008281CD1206880680421084080080028C2
:100490000DD1206840680C21884321684860606C59
:1004A000FF210131884301210843606407E0606C4B
:1004B000202108436064A06C01210843A064204609
:1004C000FFF7A0FF0C2021680860206800688021E9
:1004D000084080280ED1206840680840802809D153
:1004E000606C490208436064204600F005F98020F2
:1004F00021680860206800681021084010281AD17F
:10050000206840680840102815D1606B012805D08C
:100510002068C068C007C00F002809D0A06C022165
:100520000843A0641020216808602046FFF774FF8C
:1005300010202168086010BD70B504460026002513
:10054000002C01D1012070BD606C002806D1A06490
:10055000002140200155204600F0D0F8606C1021A9
:10056000084000287ED1002EFCD12068806804213C
:10057000084080080028F5D1606C89018843022179
:1005800008436064206880688007800F01280DD1CF
:1005900020680068C007C00F002805D12068C06827
:1005A00089030840884201D1012000E00020002892
:1005B0000FD12068C06818218843A16808432168CA
:1005C000C86020680069800080086168084321686D
:1005D00008612068C068464908402168C860A06971
:1005E0008003E169C9030843216A49030843616B39
:1005F000012902D00121090300E000210843E1683C
:1006000008432169022901D1042100E000210843A7
:10061000216B490008430543606A01280ED1206A16
:10062000002803D101200004054307E0606C20216D
:1006300008436064A06C01210843A064FF21C2311B
:10064000A06A884203D0E16AA06A08430543206893
:10065000C06828432168C86001210907A06B88424F
:1006600016D000E03DE0A06B012811D0A06B02285D
:100670000ED0A06B03280BD0A06B042808D0A06B71
:10068000052805D0A06B062802D0A06B07280DD145
:1006900020684069C008C00021684861206840693E
:1006A000218F4907490F0843216848612068C068C5
:1006B00010490840A84208D10020A064606C0221C3
:1006C000884301210843606410E0606C0221884384
:1006D000102108436064A06C01210843A064012636
:1006E00004E0606C102108436064012630462AE76C
:1006F0001902FEFFE7FF3F837047000010B586B088
:100700000446142101A8FFF70EFD1B49206888420A
:100710002FD100BF194880694915084317498861DE
:100720000846806949150840009000BF00BF00BF1F
:100730001248406909020843104948610846406967
:10074000012149040840009000BF00BF0120019032
:10075000032002900020039001A90920C00600F0A8
:100760005BF9002211460C2000F0BCFA0C2000F0CE
:10077000ADFA06B010BD0000002401400010024098
:1007800070B5044600252068806804210840800870
:10079000002843D100BF4020005D012801D1022084
:1007A00070BD01214020015500BFE069012803D040
:1007B0002046FFF7DDFC0546002D30D1606C19495D
:1007C0000840FF210131084360640020A06400BF9D
:1007D00000214020015500BF1C202168086060698D
:1007E00008280CD1206840680421884321684860AB
:1007F00020684068182108432168486006E02068A6
:1008000040681C2108432168486000BF00BF206881
:100810008068042108432168886000E0022528469A
:10082000BEE70000FEF1FFFF31B500F0FDF905461F
:10083000009C601C002800D0641C00BF00F0F4F98C
:10084000401BA042FAD338BD70B50546644C00BFCA
:100850002046641E0028FBD10121624800F0D4F933
:100860006149624A1278885402215E4800F0CCF94E
:100870005F495E4A127888545C480078401C5B49A6
:1008800008700846007802287ED157480078002872
:100890000BD155484078012807D1554800780128E8
:1008A00003D15348407801280FD04F4800780128E1
:1008B00014D14D484078002810D14D4800780028C8
:1008C0000CD14B484078002808D14A4800780F28BE
:1008D00004DA48480078401C4649087042480078CD
:1008E00001280BD140484078012807D140480078C2
:1008F000002803D13E48407801280FD03A480078BC
:10090000002814D138484078002810D138480078A1
:1009100001280CD136484078002808D135480078A5
:10092000002804D033480078401E324908702E4811
:10093000007800280BD12C484078012807D12C489A
:100940000078002803D12A48407800280FD0264894
:100950000078012814D124484078002810D1244878
:10096000007801280CD122484078012808D121487C
:100970000078002804D01F480078401E1D490870E8
:1009800019480078012800E028E00BD1164840788B
:10099000012807D116480078012803D1144840786F
:1009A00000280FD010480078002814D10E48407855
:1009B000002810D10E48007800280CD10C4840784F
:1009C000012808D10B4800780F2804DA094800787C
:1009D000401C0849087000200449087070BD0000E0
:1009E0008813000000040048080000200C000020CC
:1009F0000A0000200200002010B5044605484069A6
:100A00002040002804D0034844612046FFF71CFF23
:100A100010BD00000004014078B503460022002408
:100A20000020DEE0012696400D6835402C46002C63
:100A30007ED04D68022D02D04D68122D15D1D508FB
:100A4000AE001D462035A8595507EE0E0F25B540BE
:100A50000646AE4330465607F60E0D69B5402843AC
:100A6000D508AD001E462036705118685600032583
:100A7000B5400646AE4330460D79AD07AD0F560082
:100A8000B540284318604D68012D08D04D68022DEF
:100A900005D04D68112D02D04D68122D18D19868DF
:100AA00056000325B5400646AE4330465600CD6895
:100AB000B540284398605868012595400646AE43E6
:100AC000304610264D6835402D0995402843586022
:100AD000D86856000325B5400646AE43304656005A
:100AE0008D68B5402843D860012636074D683540EB
:100AF000B54275D100BF3E4DAD69012635433C4E30
:100B0000B5613546AD69ED07ED0F009500BF00BF3B
:100B1000384D9608B600A85995072E0F0F25B540F9
:100B20000646AE4330460925ED06AB4203D100E050
:100B300056E000250FE0304DAB4201D101250AE01F
:100B40002E4DAB4201D1022505E02D4DAB4201D126
:100B5000032500E005259607360FB5402843254DAF
:100B60009608B600A851274D28680546A543284693
:100B7000012636044D683540B54202D1054625436D
:100B80002846204D286068680546A543284601266A
:100B900076044D683540B54202D1054625432846C6
:100BA000184D6860A8680546A54328460126360505
:100BB0004D683540B54202D1054625432846114DC2
:100BC000A860E8680546A5432846012676054D68D5
:100BD0003540B54202D1054625432846094DE86017
:100BE000521C0D68D540002D00D01BE778BD0000D9
:100BF00000100240080001400004004800080048BE
:100C0000000C004800040140024613690B40002B11
:100C100001D0012000E000207047002A01D081614E
:100C200000E08162704700000148006870470000E2
:100C30001000002002480068401C0149086070470D
:100C40001000002010B50648006810210843044930
:100C50000860002000F006F800F018F8002010BD31
:100C60000020024070B5044600F010F906467D21D0
:100C7000C900FFF73BFA054600F016FC00222146AA
:100C8000501E00F02FF8002070BD000008B500BF16
:100C90000D488069012108430B4988610846806935
:100CA000C007C00F009000BF00BF00BF0846C0696A
:100CB000090408430449C8610846C069090408409A
:100CC000009000BF00BF08BD0010024000BFC20678
:100CD000D20E01219140024A116000BF704700000E
:100CE00000E100E070B504460D4616462946204650
:100CF00000F074FF70BD000070B504460D4600267C
:100D00005D480068C007C00FA8420ED25A4800686C
:100D10004008400028435849086008460068C0075A
:100D2000C00FA84201D0012070BD022120680840F8
:100D3000022807D151484068F0218843A168084340
:100D40004E4948602078C007C00F00285FD0606817
:100D5000012808D1494800680121490408400028B9
:100D600015D10120E0E76068022808D143480068F7
:100D7000012149060840002809D10120D4E73F4855
:100D8000006802210840002801D10120CCE73B483F
:100D90004068800880006168084338494860FFF770
:100DA00043FF0646606801280FD107E0FFF73CFFCC
:100DB000801B3349884201D90320B5E72F4840689A
:100DC0000C2108400428F1D121E0606802280FD1ED
:100DD00007E0FFF729FF801B2949884201D903203A
:100DE000A2E7264840680C2108400828F1D10EE00F
:100DF00007E0FFF719FF801B2149884201D9032032
:100E000092E71E4840680C2108400028F1D11A489A
:100E10000068C007C00FA8420ED9174800684008F4
:100E2000400028431449086008460068C007C00F06
:100E3000A84201D0012077E7042120680840042857
:100E400008D10E484068072109028843E168084339
:100E50000A49486000F020F808494968F02211402A
:100E60000909084A515CC840074908600020FFF79B
:100E7000F9FE002058E70000002002400010024068
:100E80008813000064210008140000200148006855
:100E90007047000014000020F0B589B024A001467E
:100EA0000EC9C06805AC0EC4089025A001460EC945
:100EB000C06801AC0EC40490002400270025002661
:100EC00000200090224844680C202040002827D0B1
:100ED000042802D0082822D102E01E48009022E017
:100EE0000F2080042040800C05A90E5C1848C06AC1
:100EF0000007000F01A90F5C012000042040012120
:100F00000904884206D139461248FFF7EFF87043CA
:100F1000054602E0104835464543009503E000BF12
:100F20000C48009000BF00BF009809B0F0BD000061
:100F300002030405060708090A0B0C0D0E0F10101A
:100F40000102030405060708090A0B0C0D0E0F1019
:100F50000010024000127A0000093D00F8B5044676
:100F600000252078C007C00F002871D0F9484068DC
:100F70000C21084004280BD0F64840680840082897
:100F800012D1F448406801210904084088420BD17D
:100F9000F048006801214904084000286BD06068CF
:100FA000002868D10120F8BD00BF6068012807D182
:100FB000E8480068012109040843E649086031E077
:100FC000606800280ED1E3480068012109048843C5
:100FD000E049086008460068012189048843DD492A
:100FE00008601FE0606805280ED1DA48006801211A
:100FF00089040843D74908600846006801210904AC
:101000000843D44908600DE0D24800680121090472
:101010008843D04908600846006801218904884354
:10102000CC49086000BF6068002812D0FFF7FCFDC3
:10103000054606E0FFF7F8FD401B642801D90320B0
:10104000B1E7C44800680121490408400028F1D0F4
:1010500011E0FFF7E9FD054606E0FFF7E5FD401B5F
:10106000642801D903209EE7BA4800680121490499
:1010700008400028F1D1022120680840022861D1EF
:10108000B44840680C21084000280BD0B1484068A3
:10109000084008281BD1AF484068012109040840D6
:1010A000002814D1AB48006802210840002804D071
:1010B000E068012801D0012075E7A6480068F82102
:1010C00088432169C9000843A24908603AE0E06802
:1010D000002820D09F480068012108439D490860EE
:1010E000FFF7A2FD054606E0FFF79EFD401B022824
:1010F00001D9032057E797480068022108400028DB
:10110000F2D094480068F82188432169C900084357
:101110009049086016E08F480068400840008D49FB
:101120000860FFF781FD054606E0FFF77DFD401BE7
:10113000022801D9032036E78648006802210840CA
:101140000028F2D1082120680840082831D1E06940
:10115000002817D07F48406A012108437D49486232
:10116000FFF762FD054606E0FFF75EFD401B022823
:1011700001D9032017E77748406A02210840002878
:10118000F2D016E07348406A400840007149486256
:10119000FFF74AFD054606E0FFF746FD401B022823
:1011A00001D90320FFE66B48406A0221084000286D
:1011B000F2D1042120680840042871D10026654836
:1011C000C0698906084000280DD100BF6148C06988
:1011D00008436049C8610846C06909040840009096
:1011E00000BF00BF01265C480068FF2101310840B4
:1011F000002816D158480068084357490860FFF78F
:1012000013FD054606E0FFF70FFD401B642801D9DA
:101210000320C8E650480068FF210131084000283B
:10122000F1D000BFA068012806D14A48006A012118
:101230000843484908622BE0A06800280CD14548C3
:10124000006A40084000434908620846006A0421D9
:101250008843404908621BE0A06805280CD13D483E
:10126000006A042108433B4908620846006A0121DC
:101270000843384908620BE03648006A40084000DD
:10128000344908620846006A0421884331490862EB
:1012900000BFA068002813D0FFF7C6FC054608E091
:1012A00029E0FFF7C1FC401B2C49884201D90320EB
:1012B00079E62848006A022108400028F1D011E0B0
:1012C000FFF7B2FC054607E0FFF7AEFC401B2349E1
:1012D000884201D9032066E61E48006A02210840C0
:1012E0000028F1D1012E05D11A48C0693107884381
:1012F0001849C86100BF10212068084010285FD13C
:10130000606901282CD11348406B0421084311491E
:1013100048630846406B012108430E494863FFF7C4
:1013200083FC054606E0FFF77FFC401B022801D93D
:10133000032038E60748406B022108400028F2D01D
:101340000448406BF8218843A169C900084301495A
:10135000486335E000100240007000408813000030
:101360006069401D00280FD14E48406B042188431E
:101370004C4948630846406BF8218843A169C9007D
:101380000843484948631BE04648406B0421084332
:10139000444948630846406B400840004863FFF7F3
:1013A00043FC054606E0FFF73FFC401B022801D93D
:1013B0000320F8E53B48406B022108400028F2D1A9
:1013C000206A00286CD0374840680C210840082863
:1013D00064D0206A022847D13248006801210906FA
:1013E000884330490860FFF71FFC054606E0FFF719
:1013F0001BFC401B022801D90320D4E529480068C2
:101400000121490608400028F1D100BF2548C06AE3
:1014100000090001E16A08432249C862616AA06AC2
:101420000843204949683D221204914308431D495D
:10143000486000BF084600680121090608431949B1
:101440000860FFF7F1FB054606E0FFF7EDFB401BE8
:10145000022801D90320A6E51248006801214906A7
:1014600008400028F1D01BE00E4800680121090661
:1014700088430C490860FFF7D7FB054606E0FFF7F5
:10148000D3FB401B022801D903208CE505480068E6
:101490000121490608400028F1D101E0012082E540
:1014A000002080E50010024070B504462546681E05
:1014B0000949884201D901200CE0681E07494861AA
:1014C0000321081F00F08AFB0020044988610720DF
:1014D0000861002070BD0000FFFFFF0000E000E099
:1014E0007047704710B504462068C0680221084361
:1014F0002168C86001220021206800F079FC206882
:1015000000680121084321680860002010BD0246E0
:1015100000BF3C20805C012801D1022070470123DC
:101520003C20835400BF02233D2083541068406850
:101530007023984313685860106840680B6818431C
:101540001368586010688068802398431368986017
:10155000106880684B6818431368986001233D2029
:10156000835400BF00233C20835400BF0020D5E7F4
:1015700010B50446002C01D1012010BD3D20005DB6
:10158000002805D100213C200155204600F00CF830
:1015900002213D200155211D206800F0D1FB0121D1
:1015A0003D2001550020E8E738B50446164920687B
:1015B00088420DD100BF15488069C91408431349FA
:1015C000886108468069C9140840009000BF19E08E
:1015D0000F492068884215D100BF0C48C06910210E
:1015E00008430A49C8610846C069102108400090B4
:1015F00000BF00BF002211461120FFF773FB11202E
:10160000FFF764FB38BD0000002C014000100240D1
:101610000010004001460868C068012210430A68B3
:10162000D06008680068012210430A68106000203A
:101630007047F8B504460D46002600BF3C20005D0B
:10164000012801D10220F8BD01213C20015500BF35
:1016500002213D2001552068866877213046884365
:101660000646FF2109023046884306462068866008
:10167000286850283ED00CDC202863D004DC0028E9
:1016800056D0102868D158E0302860D0402863D167
:1016900044E0602838D070280DD001210903401A99
:1016A00002D0401A58D117E020688068C008C000F6
:1016B0002168886051E0EB686A68A968206800F0DA
:1016C000A5FB206886687721304688430646772048
:1016D00006432068866040E0EB686A68A968206875
:1016E00000F094FB20688068012189030843216889
:1016F000886032E0EA686968206800F0A3FB502146
:10170000206800F092FB28E0EA686968206800F031
:10171000B4FB6021206800F088FB1EE0EA6869687D
:10172000206800F08FFB4021206800F07EFB14E071
:101730000021206800F079FB0FE01021206800F004
:1017400074FB0AE02021206800F06FFB05E03021E7
:10175000206800F06AFB00E000BF00BF01213D20CF
:10176000015500BF00213C20015500BF00206AE761
:10177000704710B5044620680069022108404008FF
:1017800000281CD02068C06808404008002816D0F7
:10179000481F216808610120207720688069800740
:1017A000800F002803D02046FFF7E2FF05E0204627
:1017B00000F0C3F8204600F0C1F800202077206830
:1017C000006904210840800800281DD02068C068F6
:1017D00008408008002817D0C8432168086102200B
:1017E000207720688069032109020840002803D07F
:1017F0002046FFF7BDFF05E0204600F09EF820469A
:1018000000F09CF80020207720680069082108403B
:10181000C00800281CD02068C0680840C008002804
:1018200016D0C84321680861042020772068C06969
:101830008007800F002803D02046FFF799FF05E0BE
:10184000204600F07AF8204600F078F80020207753
:101850002068006910210840000900281DD0206878
:10186000C06808400009002817D0C84321680861F3
:10187000082020772068C069032109020840002859
:1018800003D02046FFF774FF05E0204600F055F82E
:10189000204600F053F80020207720680069C00738
:1018A000C00F01214840484000280CD02068C06883
:1018B000084048404840002805D0C81E21680861FB
:1018C000204600F03DF82068006980210840C009EA
:1018D00000280BD02068C0680840C009002805D047
:1018E000C843216808612046FFF7FAFD20680069B7
:1018F00040210840800900280BD02068C0680840BB
:101900008009002805D0C84321680861204600F0FE
:101910002FF82068006920210840400900280BD0DA
:101920002068C06808404009002805D0C8432168E5
:1019300008612046FFF7D5FD10BD704770470000D5
:1019400010B5044609480068401C0849086008466C
:101950000068FF212D31884206D10022FF2101318C
:101960000920C006FFF759F910BD0000040000204F
:10197000704700BFFEE700000EB500200090019008
:101980000290184818490860400548601021164820
:1019900081600021C16001210161042141610021B8
:1019A0008161C16101624162816201218902C1627A
:1019B0000021016301214163FEF7BEFD002801D033
:1019C000FEF748FC00200090012000030190072052
:1019D000029069460448FEF73FFC002801D0FEF75C
:1019E00039FC0EBD002401401800002000B587B06E
:1019F000142102A8FEF797FB00BF4048406901216F
:101A0000890508433D494861084640690121890527
:101A10000840019000BF00BF00BF3848406949112D
:101A20000843364948610846406901214904084095
:101A3000019000BF00BF00BF304840694900084323
:101A40002E494861084640690121890408400190F7
:101A500000BF00BF00225F2109010920C006FFF777
:101A6000DCF8F020029011200390002004900590F3
:101A700002A90920C006FEF7CFFF032002902048EC
:101A800003900020049002A91E48FEF7C5FF052020
:101A9000000202900120039000200490059002A90A
:101AA0000920C006FEF7B8FF012040020290002086
:101AB00003900220049002A90920C006FEF7ACFFA3
:101AC0000820029000200390049002A90D48FEF720
:101AD000A3FF10200290002003900220049002A98E
:101AE0000848FEF799FF002211460520FFF7FAF893
:101AF0000520FFF7EBF807B000BD00000010024022
:101B0000000031100004004800B587B000200390A9
:101B100004900590069001900290174817490860BC
:101B2000302048600021154881601549C1600021BE
:101B30000161416180218161FFF71AFD002801D018
:101B4000FEF788FB01200003039003A90B48FFF771
:101B500070FD002801D0FEF77DFB202001900020C1
:101B6000029001A90548FFF7D2FC002801D0FEF73A
:101B700071FB07B000BD0000002C01406400002094
:101B8000E70300001CB50020009001900F481049A9
:101B900008604B208001486000210D4881600D499C
:101BA000C16080218161FFF7E3FC002801D0FEF7CE
:101BB00051FB00200090019069460548FFF7A7FC03
:101BC000002801D0FEF746FB1CBD000000100040BD
:101BD000A40000200F2700007047000010B5002867
:101BE00019DA1A4A03071B0F083B9B089B00D258BF
:101BF0008307DC0EFF23A3409A438B071B0E840749
:101C0000E40EA3401A43114B0407240F083CA40818
:101C1000A4001A5118E00E4A03231B02D2188308AD
:101C20009B00D2588307DC0EFF23A3409A438B0707
:101C30001B0E8407E40EA3401A43054B0324240221
:101C40001B198408A4001A5110BD00001CED00E00F
:101C500000E100E07047704710B5FEF7EBFF10BDE4
:101C600000B591B0302105A8FEF75DFA0020019083
:101C700002900390049001200590069002200D90A0
:101C8000C1030E91C1040F910021109105A8FFF727
:101C900065F9002801D0FEF7DDFA07200190022047
:101CA0000290002003900490012101A8FFF724F87E
:101CB000002801D0FEF7CEFA11B000BD1948006827
:101CC0000121084317490860084640681649084042
:101CD00014494860084600681449084011490860E2
:101CE000084600680121890488430E4908600846B7
:101CF00040683F21090488430A4948600846C06A91
:101D000000090001C8620846006BFF215431884376
:101D1000044908630846406B4008400048630020BF
:101D200088607047001002400CB8FFF8FFFFF6FE15
:101D300010B50248FFF71DFD10BD0000A4000020F3
:101D400010B500220268244B984206D001239B075D
:101D5000984202D0214B984205D170241346A343E8
:101D60001A464B681A431C4B984212D001239B071A
:101D700098420ED0194B98420BD0194B984208D07C
:101D8000184B984205D0184B984202D0174B9842F6
:101D900006D1032424021346A3431A46CB681A43F0
:101DA00080241346A3434C6923431A4602608B6880
:101DB000C3620B688362084B984208D0094B984273
:101DC00005D0094B984202D0084B984201D10B69CB
:101DD00003630123436110BD002C01400004004057
:101DE0000020004000400140004401400048014004
:101DF00030B5002301248C402346046A9C430462CE
:101E0000046A15468D402C43046230BD70B50C4603
:101E100000218168FF2636020D46B54329461D0282
:101E2000154325432943816070BD10B50A46002142
:101E3000816870240B46A3431946072313431943B3
:101E4000816010BD70B50B46144600210022026A65
:101E5000056A6D086D0005628169F0260D46B5437F
:101E60002946250129430A261546B5432A46154623
:101E70001D432A468161026270BD70B50B4614464F
:101E800000210022056A1026B54305628169026AB5
:101E90000F2636030D46B543294625032943A026C0
:101EA0001546B5432A461D012A438161026270BD71
:101EB00002E008C8121F08C1002AFAD17047704713
:101EC000002001E001C1121F002AFBD17047000071
:101ED00086B0002099490870FEF7B4FEFFF7C0FEF7
:101EE000FFF784FDFFF748FDFFF70EFEFFF74AFE00
:101EF0009348FEF799FC012211020920C006FEF763
:101F00008CFE012291020920C006FEF786FE002207
:101F100010210920C006FEF780FE002220210920A2
:101F2000C006FEF77AFE002240210920C006FEF717
:101F300074FE002280210920C006FEF76EFE814853
:101F4000FFF7D0FA8048FFF765FB8048FEF718FCE2
:101F5000F2E008217E48FEF757FE012837D1142110
:101F600001A8FEF7E0F810200190002002900390F5
:101F7000049001A90920C006FEF74EFD7D20C00097
:101F8000FEF752FC0022012189020920C006FEF75B
:101F900044FE05E000206F4908606420FEF744FC21
:101FA00008216B48FEF730FE0028F3D10122910290
:101FB0000920C006FEF731FE6420FEF735FC112033
:101FC000029001A90920C006FEF726FD00BF624865
:101FD00000785D2803DD00206049087012E05E484B
:101FE0000078592803DD01205C4908700AE05A484E
:101FF0000078522803DD02205849087002E00320CF
:102000005649087010215248FEF7FEFD012807D0FE
:10201000012149020920C006FEF7F6FD012802D180
:1020200000204C490860454800784D49087000225E
:1020300020210920C006FEF7F0FD10214448FEF7DC
:10204000E3FD002801D1012000E0002004462246E3
:1020500010210920C006FEF7E0FD012149020920F8
:10206000C006FEF7D1FD002801D1012000E00020CC
:102070000446224640210920C006FEF7CEFD37481F
:102080000078C007C00F0121484002468021092086
:10209000C006FEF7C2FD5020FEF7C6FB012220213C
:1020A0000920C006FEF7B9FD2C4800788007C00F54
:1020B00001214840024610210920C006FEF7ADFD6F
:1020C00027480078C007C00F012148400246402140
:1020D0000920C006FEF7A1FD214800788007C00F47
:1020E00001214840024680210920C006FEF795FDE7
:1020F0005020FEF799FB1A4800784007C00F0121D5
:102100004840024610210920C006FEF786FD14480B
:1021100000780007C00F01214840024640210920F5
:10212000C006FEF77AFD012280210920C006FEF7D5
:1021300074FD5020FEF778FB0BE700000200002042
:10214000B80B000064000020A4000020180000204C
:1021500000040048040000200000002001000020CE
:102160000300002000000000000000000102030442
:102170000607080900000000010203049C21000872
:102180000000002018000000B01E0008B421000864
:1021900018000020D0040000C01E0008000000004D
:1021A000000000000000000000000000000000002F
:0421B00000127A009F
:04000005080000BD32
:00000001FF
